:020000040800F2
:100000000807002091020008E1130008D913000836
:10001000DD13000889040008D51600080000000060
:10002000000000000000000000000000E9130008CC
:100030008D04000800000000E5130008ED1300081F
:10004000AB020008AB020008AB020008AB020008DC
:10005000AB020008AB020008AB020008AB020008CC
:10006000AB020008AB020008AB020008AB020008BC
:10007000AB020008AB020008AB020008AB020008AC
:10008000AB020008AB020008AB020008AB0200089C
:10009000AB020008AB020008AB020008AB0200088C
:1000A000AB020008AB020008AB020008AB0200087C
:1000B000AB020008AB020008AB020008AB0200086C
:1000C000AB020008AB020008AB020008AB0200085C
:1000D000AB020008AB020008AB020008AB0200084C
:1000E000AB020008AB020008AB020008AB0200083C
:1000F000AB020008AB020008AB020008AB0200082C
:10010000AB020008AB020008AB020008AB0200081B
:10011000AB020008AB020008AB020008AB0200080B
:10012000AB020008AB020008AB020008AB020008FB
:10013000AB0200080000000000000000AB02000855
:10014000AB020008AB020008AB020008AB020008DB
:10015000AB020008AB020008AB020008AB020008CB
:10016000AB020008AB020008AB020008AB020008BB
:10017000AB020008AB020008AB0200080000000060
:1001800000000000AB0200080000000000000000BA
:10019000AB0200080000000000000000AB020008F5
:1001A000000000000000000000000000AB0200089A
:1001B000AB020008AB020008AB020008AB0200086B
:1001C000AB02000800F002F800F052F814A696E81E
:1001D000000CB244B344DA4501D100F049F8BAE862
:1001E0000F000FA696E83000A5EB040504EB060708
:1001F000AAEB0704A7F101074FEA15154FEA3414DB
:10020000A4F10104AC4201D300F032F813F0010F65
:1002100018BFFB1A43F0010300F001F8DBE71847B1
:10022000B0160000D0160000103A24BF78C878C17C
:10023000FAD8520724BF30C830C144BF04680C60EC
:1002400070470000704700000023002400250026AE
:10025000103A28BF78C1FBD8520728BF30C148BF29
:100260000B6070471FB501F019FB1FBD10B510BD25
:1002700000F0D0F81146FFF7F5FF01F02DFA00F07D
:10028000EEF803B4FFF7F2FF03BC00F0F5F800004E
:100290000948804709480047FEE7FEE7FEE7FEE71A
:1002A000FEE7FEE7FEE7FEE7FEE7FEE70448054956
:1002B000054A064B7047000095140008C501000868
:1002C0000801002008070020080300200803002080
:1002D00053EA020C00F069802DE9F04B4FF0000664
:1002E000002B1FBFB3FA83F503FA05F424FA05F6D1
:1002F0005E4012BF1643B2FA82F502FA05F4C5F168
:1003000020051EBF22FA05FC44EA0C04203556EAFB
:10031000044C4FEA144418BF641C4FF000084FF01F
:100320000009904271EB030C39D3002919BFB1FACF
:1003300081F701FA07F6B0FA80F700FA07F6C7F17D
:1003400020071EBF20FA07FC46EA0C062037B6FB42
:10035000F4FCA7EB0507103F07F01F0BCBF12006BD
:100360002CFA06F60CFA0BFB44BFB3460026202FEE
:10037000A4BF5E464FF0000B5BEA060C08BF4FF0CF
:10038000010B19EB0B0948EB0608ABFB027C06FBE3
:1003900002CC0BFB03CCC01B71EB0C01C1E70B467D
:1003A000024641464846BDE8F08B13B5084318BFE6
:1003B0004FF0FF300146AFF30080BDE81C407047AE
:1003C0004FF0000200B5134694469646203922BFEE
:1003D000A0E80C50A0E80C50B1F12001BFF4F7AF39
:1003E000090728BFA0E80C5048BF0CC05DF804EB1B
:1003F000890028BF40F8042B08BF704748BF20F889
:10040000022B11F0804F18BF00F8012B7047704786
:1004100070477047754600F02BF8AE4605006946F8
:10042000534620F00700854618B020B5FFF73EFF81
:10043000BDE820404FF000064FF000074FF00008E5
:100440004FF0000BAC46ACE8C009ACE8C009ACE822
:10045000C009ACE8C00921F007018D46704710B50E
:100460000446AFF300802046BDE81040FFF709BF07
:10047000004870471000002001491820ABBEFEE77D
:100480002600020070470000FEE7000070470000F1
:10049000B0B5044600F0ECF8054640F20000C2F2A8
:1004A00000000078611C18BF044400BF00F0E0F8B1
:1004B000401BA042FAD3B0BD2DE9F04F83B000F14C
:1004C000200200F13E4741F60005009207F1FF7758
:1004D000C4F2020507224FEAB726A84208BF062247
:1004E00000254FF000084FF00009062E38BF4FEAF4
:1004F000B72201920AE000BF09F1010908F10208E0
:10050000B9F1100F05F1040500F0A2800F68012277
:1005100002FA09FE17EA0E0AEED0D1F804C003224F
:100520000CF003077E1E02FA08F4012E6FEA040B9A
:1005300012D88468CE6804EA0B0406FA08F634433D
:100540008460446824EA0E06CCF3001404FA09F42B
:100550002643466004E000BF032F01D103271EE0BD
:10056000C6688C6806EA0B0604FA08F42643022FD4
:10057000C66014D16FF00302009E02EA590756F8D4
:1005800007C005F01C040F220B69A2402CEA0202EE
:10059000A3401A43F251D1F804C00CF003070268DB
:1005A00007FA08F302EA0B021A431CF4403F026008
:1005B000A2D0002243F644030292C4F202031A6856
:1005C00043F6004442F480421A601A68C4F20104FF
:1005D00002F480420292029A29F003024FF6084C7C
:1005E0002244CFF6FF7C52F80C3005F00C070F26A2
:1005F000BE40B343019E06FA07F73B4342F80C3076
:10060000A2684B6842EA0A0743F60C4CDE0258BF68
:1006100022EA0A07A760C4F2010CDCF800209E025F
:1006200042EA0A0758BF22EA0A07CCF8007062685B
:100630009E0342EA0A0758BF22EA0A076760226857
:10064000DB0342EA0A0758BF22EA0A07276053E79A
:1006500003B0BDE8F08F00000069084018BF01201A
:1006600070470000002A08BF09048161704700003C
:1006700040F20010C2F200000068704740F2000033
:1006800040F20011C2F20000C2F2000100780A68D4
:10069000104408607047000080B543F60040C4F283
:1006A0000200016841F400710160016841F4806159
:1006B0000160016841F480710160032000F076F868
:1006C000002000F005F800F027F8002080BD0000B1
:1006D00070B540F20006C2F2000640F2080132781E
:1006E000C2F200014FF47A730968B3FBF2F20446D8
:1006F000B1FBF2F1084600F083FB0F2C4FF001052F
:1007000008D838B94FF0FF3021460022002500F00C
:1007100021F87460284670BD82B0002043F6400185
:100720000190C4F202014A6842F480424A604A6879
:1007300002F480420192019A0090086840F08050D3
:100740000860086800F0805000900098072002B010
:1007500000F02CB810B54EF60C5CCEF2000CDCF8B4
:100760000030C3F3022E8EF00704042C28BF0424AB
:10077000BEF103034FF0FF3E0EFA04F438BF00232E
:10078000A14399400EFA03F39A43114300F00F027C
:1007900000F160430901043A03F564436244002810
:1007A00048BF02F10C03197010BD00004EF60C5149
:1007B000CEF200010A684FF6FF031A4060F30A22E6
:1007C00042F0806040F0FD7008607047002804BF70
:1007D000012070472DE9F04143F60808C4F20208F1
:1007E0000446D8F8F8030D4600F00F00814207D9FF
:1007F00088F8F853D8F8F80300F00F00A84277D132
:100800002068810717D5410705D5D8F8001041F4B5
:10081000E051C8F80010010705D5D8F8001041F4E0
:100820006041C8F80010D8F80010A26821F0F0016B
:100830001143C8F80010C00740D1D8F8F80300F001
:100840000F00854207D288F8F853D8F8F80300F073
:100850000F00A8424CD12068410707D5D8F80010F6
:10086000E26821F4E0511143C8F80010000708D5F0
:10087000D8F80000216920F4604040EAC100C8F8BF
:10088000000000F07DF8D8F8001041F6B602C1F380
:100890000311C0F60002515C40F2080220FA01F197
:1008A00040F20400C2F200000068C2F200021160CF
:1008B000FFF70EFF0020BDE8F08100BF6068811ED9
:1008C000022907D258F8081C89015CBF0120BDE845
:1008D000F08111E0012807D158F8081C89035CBF9A
:1008E0000120BDE8F08107E058F8081C890703D40F
:1008F0000120BDE8F08100BFD8F8001021F003010D
:100900000843C8F80000FFF7B3FE064641F28837F7
:10091000D8F80000616800F00C00B0EB810F8CD0BB
:10092000FFF7A6FE801BB842F2D90320BDE8F08194
:1009300040F2080043F60801C2F20000C4F20201CE
:100940000068096841F6C602C1F38221C0F60002C0
:10095000515CC8407047000040F2080043F60801AF
:10096000C2F20000C4F202010068096841F6C60242
:10097000C1F34231C0F60002515CC840704700002C
:1009800010B543F60404C4F202046068C0F38101A8
:1009900042F20040C0F2F400DFE801F04202081821
:1009A00041F20020C0F27A0010BD00BF216801F0C2
:1009B0003F02216823684902C3F3881116D4A1FBC2
:1009C00000010023FFF784FC17E000BF216801F05D
:1009D0003F02216823684902C3F3881114D4A1FBA4
:1009E00000010023FFF774FC15E000BF41F2002076
:1009F000C0F27A004843B0FBF2F021680222C1F352
:100A0000014102EB410109E041F20020C0F27A000D
:100A10004843B0FBF2F02168C1F30271B0FBF1F082
:100A200010BD0000002804BF012070472DE9F041EF
:100A300082B00446007843F60006C007C4F20206FE
:100A40000CD0B06800F00C00042840F089803068B9
:100A5000800303D56068002800F05081207880076B
:100A600023D5B06810F00C0F11D0B06800F00C0066
:100A7000082802D17068400209D5B06800F00C0067
:100A80000C2840F09F807068400200F19B80306825
:100A9000800703D5E068012840F030813068216983
:100AA00020F0F80040EAC10030602078000713D43D
:100AB000207840072AD4A569002D00F01A81B0687B
:100AC00000F00C00082840F0AB80012D40F0E880D9
:100AD000012002B0BDE8F0816069002840F200000A
:100AE000C4F2472000F088800121C0F8801EFFF783
:100AF000BFFD0546706F8007DAD4FFF7B9FD401BD4
:100B00000228F7D9032002B0BDE8F081306C5FEA1B
:100B1000C0080AD400200190306C40F0805030644E
:100B2000306C00F080500190019847F20007C4F249
:100B300000073868C00537D4386840F480703860E2
:100B4000FFF796FD054600BF3868C0052CD4FFF7B7
:100B50008FFD401B0228F7D9032002B0BDE8F081C9
:100B6000B06800F00C00082803D1706840023FF51F
:100B70006EAFB06800F00C000C2803D17068400222
:100B80003FF565AF61683068B1F5803F07D0B1F5DA
:100B9000A02F40F0CB8040F480203060306840F4DB
:100BA00080303060CBE000BFA168306F012905D0F4
:100BB000052957D140F004003067306F40F0010044
:100BC000306759E0E068002800F09C800020C4F203
:100BD000472001210160FFF74BFD05463068800783
:100BE0003FF55CAFFFF744FD401B02284FF00300C8
:100BF000F4D902B0BDE8F0810021C0F8801EFFF7F3
:100C000037FD0546706F80077FF552AFFFF730FD67
:100C1000401B0228F6D9032002B0BDE8F08100BFD6
:100C20000027C4F2472700203866FFF721FD022D78
:100C300005460BD13068800140F19280FFF718FD26
:100C4000401B02284FF00300F4D9D2E7306880013E
:100C50004FD5FFF70DFD401B02284FF00300F5D9DB
:100C6000C7E700BF20F001003067306F002920F097
:100C70000400306700F09880FFF7FAFC054641F267
:100C8000883700BF306F800700F1A080FFF7F0FCCD
:100C9000401BB842F6D9032002B0BDE8F08100BF86
:100CA0007068E16900F480028A4227D1216A00F06D
:100CB0003F028A4222D147F6C071626A0140B1EB1D
:100CC000821F1BD1A16A4FF6FF73C903994300F439
:100CD0004032A1F580318A4210D1E16A00F07062A1
:100CE000B2EB016F0AD1216B00F0E040B0EB017F65
:100CF00004D1002002B0BDE8F08100BF012002B0A5
:100D0000BDE8F0810020C4F2472000210160FFF718
:100D1000AFFC0546306880077FF5C7AEFFF7A8FC3B
:100D2000401B02284FF00300F4D962E720F4803022
:100D300030603068002920F48020306050D0FFF708
:100D400097FC0546306880033FF588AEFFF790FCBE
:100D5000401B6428F6D9032002B0BDE8F08100BF33
:100D600004F11C052FCD246B084340EA8210D903FF
:100D70004FF6FF729143A1F5803140EA05600843C8
:100D800040EA0470706001203866FFF771FC044689
:100D900030688001ADD4FFF76BFC001B02284FF0D8
:100DA0000300F5D925E700BFFFF762FC054641F2D5
:100DB000883700BF306F800708D5FFF759FC401B0C
:100DC000B8424FF00300F5D913E700BFB8F1000FA8
:100DD0003FF571AE306C20F0805030646BE600BFA0
:100DE000FFF746FC054600BF306880037FF536AE4E
:100DF000FFF73EFC401B64284FF00300F4D9F8E6EF
:100E0000411E0020B0EB116F1CBF012070474EF255
:100E10001002CEF2000251604EF62351CEF20001D4
:100E2000F0230B70072190601160704790F83C2010
:100E3000012A4FF0020254D010B580F83D2002681C
:100E4000D2F804E0D2F808C00C682EF070032343F7
:100E500041F2FF74C4F20004A24253600EDC40F27F
:100E6000FF73C4F200039A4216DCB2F1804F2BD01C
:100E700040F20043C4F2000324E000BF40F2FF331D
:100E8000C4F201039A4213DC41F60003C4F20003EA
:100E90009A4219D0002313E040F60003C4F2000385
:100EA0009A4211D040F60043C4F200030AE000BFAA
:100EB00044F20003C4F201039A4205D040F2004319
:100EC000C4F201039A4204D149682CF0800319430B
:100ED00091600121002280F83D1080F83C20BDE89F
:100EE000104010467047000080B586B040F20041C7
:100EF0000068C4F20001002288420592CDE9032275
:100F00000292019202D006B080BD00BF43F63000CD
:100F10000092C4F20200036843F00103036000681A
:100F200000F0010000900098402001900220CDE9DF
:100F30000202CDE9042001F5FE3001A9FFF7BCFA59
:100F400006B080BD90F83C30012B04BF02207047F2
:100F50004FEAB202032A00F2FF802DE9F043DFE8F6
:100F600002F003B13F7F00BF036840F200461C6AF5
:100F70001A6A24F0020422F001021A621A46D3F817
:100F800004C052F818EF8F6843F48065C4F201067C
:100F9000B54244EA070405D1CF6824F00C0427F0D9
:100FA00004073C430F68B54206D1D1E905582CF43B
:100FB00040762E4346EA080C2EF073063743C3F8FA
:100FC00004C09F614F6809695F631C629F6947F0B5
:100FD00008079F619F6927F004079F61B1E000BF88
:100FE000036840F200481C6A1A6A24F4007422F470
:100FF00080721A621A46D3F804C052F81CEF8F6848
:1010000043F48065C4F20108454544EA072408D149
:10101000CF6840F2FF463F0224F4406427EA060608
:101020003443D1F80090454506D1D1E905562CF45A
:1010300040572E4347EA061C2EF0730747EA09077C
:10104000C3F804C0DF614F680969DF631C62DF69B0
:1010500047F00807DF61DF6927F00407DF6170E010
:10106000036840F20045D3F820C01A6A43F4806751
:1010700022F480521A621A465C6852F81C8FD1F82A
:1010800000E08E68C4F20105AF4204D14D6924F43A
:10109000804444EA85142CF4005747EA063728F4C4
:1010A000E64646EA0E265C60DE614E6809691E640B
:1010B0001F62DF6947F40067DF61DF6927F480673B
:1010C000DF613DE0036840F200481C6A1A6A24F0C0
:1010D000200422F010021A621A46D3F804C052F813
:1010E00018EF8F6843F48065C4F20108454544EA6F
:1010F000071407D1CF686FF0400624F0C00406EA59
:1011000007163443D1F80090454506D1D1E905567C
:101110002CF440672E4347EA860C2EF4E64747EA54
:101120000927C3F804C09F614F6809699F631C6267
:101130009F6947F400679F619F6927F480679F61FB
:1011400009021368194311600021BDE8F043002231
:1011500080F83C20084670470121002280F83C209E
:1011600008467047002804BF0120704710B50446A8
:1011700090F83D0028B9002084F83C00204600F09B
:101180001FF8022084F83D002068211D00F08CF932
:10119000012084F8460084F83E0084F83F0084F87B
:1011A000400084F8410084F8420084F8430084F849
:1011B000440084F8450084F83D00002010BD000084
:1011C000006840F20041C4F20001884218BF704735
:1011D00081B00020009043F64000C4F20200016894
:1011E00041F002010160006800F0020000900098E8
:1011F00001B07047C1B1042908D0082914BF4122A9
:101200004022825C012A05D016E000BF3F22825CAA
:10121000012A11D10222082910D0042914BF80F814
:10122000412080F83F200BE090F83E20012A03D1B6
:10123000022280F83E2003E00120704780F8402021
:10124000006801F01F010122036A02FA01F123EA9A
:1012500001020262026A114341F2FF72C4F200020B
:10126000904201620CDC40F2FF71C4F2000188423E
:1012700014DCB0F1804F37D040F2004116E000BFDF
:1012800040F2FF31C4F20101884215DC41F6000151
:10129000C4F20001884227D0002115E040F6000189
:1012A000C4F2000188421FD040F60041C4F20001A0
:1012B000884219D01FE000BF44F20001C4F20101CE
:1012C000884211D040F20041C4F20101884212D19B
:1012D000416C40F2004340F48062C4F2010341F4E7
:1012E00000419A42416406D1816801F00701062954
:1012F00004BF00207047016841F001010160002037
:1013000070470000002804BF0120704710B5044654
:1013100090F8410028B9002084F84000204600F0F1
:1013200021F8242084F841002068C16821F400518C
:10133000C160204600F05AF92068016921F490410B
:101340000161416921F02A014161C16841F4005104
:10135000C16000202021606484F8411084F84210AC
:10136000606310BD80B586B044F200410068C4F2ED
:101370000001002288420592CDE9032202920192E7
:1013800002D006B080BD00BF43F630000092C4F228
:101390000200036943F400330361036903F400337B
:1013A0000093009B0092036843F001030360006810
:1013B00000F00100009000980C2001900220CDE97F
:1013C0000202032004900720059001F5DE3001A9F8
:1013D000FFF772F806B080BDFEE70000FEE70000F0
:1013E000FEE700007047000070470000FFF746B9B5
:1013F00070B594B007AC20463421FEF7E1FF00251C
:1014000043F640000695CDE90455CDE90255019516
:10141000C4F202000168012241F0805101600068BD
:10142000022600F080500190019847F200000195DB
:10143000C4F20000016862F38F310160006800F4BB
:1014400040400190019810200B900F904FF4A8702D
:1014500010900420CDE91106204607960A92CDE9A6
:101460000D651396FFF7DEFA10B172B6FEE700BF06
:101470000F20CDE902064FF48050CDE9050502A802
:1014800002210495FFF7A2F910B172B6FEE700BF82
:1014900014B070BD4EF68850CEF20000016841F4E1
:1014A000700101607047000010B540F6FF3E036810
:1014B000C4F2000E40F2004C7045C4F2010C25DC71
:1014C000B0F1804F2FD040F20042C4F200029042AF
:1014D00029D040F60002C4F20002904223D041F627
:1014E000FF72C4F20002904227DC70453ADCB0F192
:1014F000804F5BD040F20042C4F20002904255D0CF
:1015000040F60002C4F200024EE000BF40F6004286
:10151000C4F20002904206D0604504D00022C4F21A
:1015200001029042DBD14A6823F07003134341F675
:10153000FF72C4F200029042D7DD43F6FF72C4F29C
:101540000102904220DC42F20002C4F2000290420A
:101550002CD00022C4F20102904227D0604525D051
:1015600028E000BF40F60042C4F2000290421DD0C5
:1015700041F60002C4F20002904217D041F6004248
:10158000C4F2000210E000BF44F20002C4F2010203
:1015900090420BD044F60002C4F20102904205D002
:1015A00044F20042C4F20102904203D1CA6823F41B
:1015B0004073134323F080024B69D1F800E08C683C
:1015C0001A430260C46240F48062C0F828E06245B9
:1015D00004BF09690163012141610169C90708BFAD
:1015E00010BD016921F00101016110BDB0B50446D3
:1015F000006804F108030ECB0569194325F4405532
:101600002A4302616269E3691143C268194349F2DE
:101610000C639A431143C1604169A26921F440718E
:1016200041F20043114340F48062C4F201039A4244
:10163000416103D1FFF790F902E000BFFFF778F9AD
:10164000E1694FF69C7563681922C0F6FF75B1F524
:10165000004FA0FB02011FD15A00DB0FFEF738FE3E
:1016600048F21F51C5F2EB11A0FB01235A0905F105
:10167000805302FB0300322303EBC000A0FB0101F7
:101680004FF4F87000EA111000EB0210C1F34211A0
:10169000084421688860B0BD9A009B0FFEF718FED1
:1016A00048F21F51C5F2EB11A0FB01235A0902FBBE
:1016B0000500322303EB0010A0FB0101F02000EA3B
:1016C000511000EB0210C1F34311084421688860F7
:1016D000B0BD0000FEE700008AB040F20008C4F28E
:1016E0000208FEF7D9FFFFF783FE002743F630001C
:1016F0000597CDE90377CDE901770897C4F2020099
:101700000168002241F00401016001684FF448794A
:1017100001F00401089108990897016841F08001DF
:101720000160016801F0800108910899089701683B
:1017300041F001010160016801F00101089108997F
:101740000897016841F00201016000684FF4487198
:1017500000F00200089008984046FEF783FF4FF41F
:10176000005008F5006501AECDE9010701242846C7
:1017700031460394FEF7A0FE40463146CDE9019480
:10178000CDE90377FEF798FE40F2B800A8F5DE3108
:10179000C2F200000C234FF4E13280E88600C0E979
:1017A0000377C0E90537C761FFF7ACFD10B172B62A
:1017B000FEE700BF40F27000A8F5FE31C2F2000063
:1017C00040F2E733CDE90877CDE90677CDE9047734
:1017D000592280E88600C0E903378761FFF7C2FC21
:1017E00010B172B6FEE700BF40F27000C2F2000016
:1017F00008A9FFF71BFB18B172B600BFFEE700BFD8
:1018000040F270066020C2F2000601904FF000091D
:1018100001A930460022CDE90299CDF81490FFF7D6
:1018200091FB18B172B600BFFEE700BF3046FFF76C
:101830005BFB30460021FFF7DDFC40464FF4807132
:101840000122FEF70FFF40464FF400710022FEF721
:1018500009FF48F21F573C24C5F2EB170DE000BF0B
:10186000F068C0EB001004EB8000A0FB07013068BB
:10187000490941636420FEF70BFE28464FF40051EE
:10188000FEF7EAFE0028EBD130684FF44071C0F853
:10189000349040460022FEF7E5FEEBE7F1EE100A39
:1018A0004FF6FF71C0F2C03120EA010040F04070F5
:1018B000E1EE100A70470000000000000000010285
:1018C00003040607080900000000010203040000E9
:1018D000F018000800000020100000002802000896
:1018E0000019000810000020F80600004802000857
:1018F00001000000100000000024F40000000000BF
:04000005080001C529
:00000001FF
